:1000000009C018951895189518951895189518956C
:10001000189518958FE98DBFCEE8EEE74E2EDD27B7
:100020005D2EA89584B7082E877F84BF88E1992725
:1000300081BD91BDEEE3F0E0A0E6B0E088278D93AE
:100040003197E9F76624B898B99ABA9ABB9ABC9ADC
:10005000B09B01C005D082E390E05ED0F9CF089557
:1000600080E090E0A0E68D939C93A0E60D911C911A
:10007000063050E0150714F009F030C0A0E60D91ED
:100080001C91013050E0150781E009F080E08F936A
:10009000A0E60D911C91023050E0150781E009F0B7
:1000A00080E09F91892B882309F402C018D013C0E7
:1000B000A0E60D911C91033050E0150709F002C035
:1000C00011D009C0A0E60D911C91043050E0150735
:1000D00009F001C00DD0A0E60FD0C7CF0895C39896
:1000E000C49A0895C498C39A0895C49AC39A089567
:1000F000C49AC39A209A0895ED91FC91EF5FFF4F47
:10010000FC93EE9308953197F1F70895689462F89F
:100110000895E89462F80895EF93FF93EE27E82B93
:10012000E92B31F0ECE2F1E03197F1F70197D1F7EB
:06013000FF91EF9108951C
:00000001FF
